:020000022000DC
:1060000000000120F9620200216302002363020004
:1060100025630200276302002963020000000000DC
:106020000000000000000000000000002B630200E0
:106030002D630200000000002F63020031630200A4
:10604000D9A2020033630200B5B00200291A03008E
:106050003363020033630200BDAF0200336302000A
:1060600033630200336302003363020033630200D0
:1060700033630200336302003363020033630200C0
:1060800033630200D502030033630200336302006E
:10609000336302003363020065F7020033630200DA
:1060A0003363020033630200336302003363020090
:1060B00033630200336302000000000000000000B0
:1060C0003363020033630200336302003363020070
:1060D00033630200336302003363020000000000F8
:1060E00000000000000000000000000000000000B0
:1060F00000000000000000000000000000000000A0
:10610000000000000000000000000000000000008F
:10611000000000000000000000000000000000007F
:10612000000000000000000000000000000000006F
:10613000000000000000000000000000000000005F
:10614000000000000000000000000000000000004F
:10615000000000000000000000000000000000003F
:10616000000000000000000000000000000000002F
:10617000000000000000000000000000000000001F
:10618000000000000000000000000000000000000F
:1061900000000000000000000000000000000000FF
:1061A00000000000000000000000000000000000EF
:1061B00000000000000000000000000000000000DF
:1061C00000000000000000000000000000000000CF
:1061D00000000000000000000000000000000000BF
:1061E00000000000000000000000000000000000AF
:1061F000000000000000000000000000000000009F
:106200000348044B834202D0034B03B11847704745
:10621000FC230020FC230020000000000548064964
:106220000B1AD90F01EBA301491002D0034B03B1A4
:1062300018477047FC230020FC23002000000000CA
:1062400010B5064C237843B9FFF7DAFF044B13B1BE
:106250000448AFF300800123237010BD0024002008
:10626000000000001434030008B5044B1BB10449BE
:106270000448AFF30080BDE80840CFE7000000000D
:106280000424002014340300A3F5803A704700BFB3
:10629000154B002B08BF114B9D46FFF7F5FF002162
:1062A0008B460F461148124A121A0BF031FF0C4B65
:1062B000002B00D098470B4B002B00D098470020B4
:1062C000002104000D000B480BF034FE0BF062FEC1
:1062D0002000290006F0BAFF0BF032FE0000080093
:1062E0000000000000000000000001200024002049
:1062F000CC2D0020691F03000649074A074B9B1A53
:1063000003DD043BC858D050FBDC03F0D9F9FFF79C
:10631000BFFF000014350300F022002000240020FD
:10632000FEE7FEE7FEE7FEE7FEE7FEE7FEE7FEE745
:10633000FEE7FEE780B5A0B002AFF860B9607A6012
:106340003B60B86802F0D6FB7B68FB643B683B654A
:1063500000237B65002387F858300023FB65D7F8BE
:1063600080303B6600237B6707F134017B6F082296
:10637000B86802F083FC08237B67FB6B3B643B8FB0
:10638000A7F844307B8FA7F84630002387F84930C0
:1063900097F8343003F00303DBB2012B29D17B6B78
:1063A000C3F39523BB6697F83430C3F3C203DBB263
:1063B00087F84830BB8EC3F38313DBB27B667B6EFA
:1063C0009A0007F11C017B6FB86802F057FC7B6EE6
:1063D0009B007A6F13447B6707F1400207F11C01B1
:1063E00007F14C03009313467A6EB86E00F0BCFFC1
:1063F00032E097F8343003F00303DBB2022B2BD1E9
:10640000FB8EC3F389139BB23B6797F83430C3F319
:10641000C203DBB287F848303B6F082B28BF082344
:10642000FB6607F114017B6FFA6EB86802F026FC78
:106430007A6FFB6E13447B673A6FFB6ED31A3B6730
:1064400007F14C0307F1400207F11400F96E01F067
:106450002DF83B6F002BDFD1B86802F05BFB00BF6B
:106460007837BD4680BD000080B582B000AF78604F
:106470007B681B781A460D4B9B5C002B05D07B6814
:106480000433184606F0EEF80BE07B681B781A46DA
:10649000064B9B5C002B04D17B680C33184605F03F
:1064A00065FA00BF0837BD4680BD00BF482A0020FE
:1064B00080B586B000AFF860B9601346FB71002369
:1064C0007B61FB681B781A46104B9B5C002B08D045
:1064D000FB680433FA79B968184606F027F9786141
:1064E0000EE0FB681B781A46084B9B5C002B07D11B
:1064F000FB680C33FA79B968184605F0AFFA786191
:106500007B6918461837BD4680BD00BF482A002069
:1065100080B483B000AF78603960044B01221A70F8
:1065200000BF0C37BD465DF8047B70475C2400203B
:10653000B0B58CB000AF0346FB711A4B07F10804ED
:106540001D460FCD0FC495E80F0084E80F00062309
:10655000BB604FF0FF33FB604FF0FF333B614FF008
:10656000FF337B614FF0EB733B62FB79002B01D073
:106570000D4A00E0002207F1080319460B4803F01A
:10658000D1FCF862FB6ABB62BB6A002B02D0B86A1E
:1065900001F0E2FA064AFB79137000BF3037BD46BE
:1065A000B0BD00BF2C24030011650200F0220020C2
:1065B0005D24002080B582B000AF0123FB71FB7920
:1065C0001846FFF7B5FF00BF0837BD4680BD000085
:1065D00080B588B000AFF860B9607A607B68FB77FF
:1065E000114B00221A70FB7F1A46B9680F48FFF75B
:1065F0005FFFB861BB697B617B69002B02D0786962
:1066000001F0AAFA00BF0A4B1B78002B07D0064BFB
:106610001B78DBB283F00103DBB2002BF3D100BFA8
:106620002037BD4680BD00BF5C240020F022002042
:106630005D24002080B584B002AF78603960064BDD
:1066400000934023054A39687868FFF773FE00BF5E
:106650000837BD4680BD00BFD16502001C24002064
:1066600080B483B000AF786000BF0C37BD465DF8E2
:10667000047B704780B582B000AF78600448FFF7B4
:10668000F3FE0020FFF754FF00BF0837BD4680BD72
:10669000F022002080B483B000AF78607B68DB68B4
:1066A00001225A7100BF0C37BD465DF8047B70476C
:1066B00080B582B000AF4FF0FF337B60FFF77AFF09
:1066C0000421054800F062FD78600348FFF7E2FF0F
:1066D00000BF0837BD4680BDFC34030080B582B0E2
:1066E00000AF786039607B681B681B683968786820
:1066F000984700BF0837BD4680BD80B582B000AF67
:1067000078607B681B685B687868984700BF0837CB
:10671000BD4680BD80B582B000AF78607B681B68E5
:106720009B687868984700BF0837BD4680BD80B435
:1067300083B000AF78600B46FB707B68DB68FA784B
:106740001A7100BF0C37BD465DF8047B704780B4FA
:1067500083B000AF78607B68DB681B7918460C3724
:10676000BD465DF8047B704780B483B000AF7860AD
:106770007B68DB6801225A7100BF0C37BD465DF8AB
:10678000047B704780B483B000AF78607B68DB68BF
:106790005B7918460C37BD465DF8047B70470000F6
:1067A00080B584B000AF786039600C4B00221A705D
:1067B0000B4802F005F9F860FB68002B01D0FB687C
:1067C00008E0084802F0F1FA074A084BD31ADB0840
:1067D000BB60002318461037BD4680BDC825002089
:1067E000683403006C240300FC3403007C34030091
:1067F00080B400AF044A054BD31ADB081846BD46E7
:106800005DF8047B704700BFFC3403007C34030058
:1068100080B586B000AF78600B46FB70FB78002B2C
:106820001FD0FFF7E5FF386100237B6113E07B6930
:106830009B000E4A1344FB60FB681B881A467B686A
:106840001B689A4204D17B687A691A60002309E0C8
:106850007B6901337B617A693B699A42E7D30523FF
:1068600000E0002318461837BD4680BDFC230020F9
:1068700080B584B000AF78600B46FB70FA783B1DA2
:1068800011461846FFF7C4FF0346002B07D17B686B
:10689000DB00054A1344FB60FB681B6800E0002333
:1068A00018461037BD4680BD7C34030080B485B0E7
:1068B00000AF78600B46FB707B68DB00144A134422
:1068C000BB60FB78013B032B18D801A252F823F0E0
:1068D000E1680200E7680200ED680200F568020066
:1068E0000223FB730DE00423FB730AE0BB681B79F2
:1068F000FB7306E0BB685B79FB7302E00023FB736C
:1069000000BFFB7B18461437BD465DF8047B70471B
:106910007C34030080B485B000AF78603960002318
:10692000FB737B681B7803F00403DBB2002B23D0DE
:106930007B681B78C3F30103DBB2012B02D0022B6F
:106940000CD017E03B681B687A681288C2F3831288
:10695000D2B213449A1C3B681A600BE03B681B6878
:106960007A685288C2F3891292B213449A1C3B6827
:106970001A6000BF0123FB73FB7B18461437BD462A
:106980005DF8047B7047000080B58AB000AF00233B
:10699000FB84384801F0D4FB374801F0D1FB374B7A
:1069A0009B683B61364B1B68BB613A69BB6913400E
:1069B00002339B00314A134404333B6207F1100356
:1069C0001946386AFFF7A6FF0346002B09D03A693B
:1069D000BB69134002339B00284A134404333B62D3
:1069E000ECE700BF0023FB6111E03B695A1C3A61F0
:1069F000BA691340FA699200391D0A441F490233EB
:106A00009B000B445B681360FB690133FB61FB690E
:106A1000012BEAD93B79C3F30103DBB2012B0DD083
:106A2000022B16D17B89FB84FB88C3F389139BB2AD
:106A300003339A083B6913443B610BE07B89FB8479
:106A4000BB88C3F38313DBB21A463B6913443B6133
:106A500000E000BF084801F080FB78617B69002BF3
:106A600002D03B69054A9360FB8C18462837BD4627
:106A700080BD00BFE0290020DC290020C8250020BF
:106A80000C23002080B584B000AF0021074801F03E
:106A9000C2FAF860FB68BB60BB6883F310037B60DD
:106AA0007B6818461037BD4680BD00BFE429002032
:106AB00080B588B000AFF860B9607A603B60FB6871
:106AC0001B0CBB61FFF7DEFFF861FB6919043B6833
:106AD0005A1CBB6A1340BA690A431B4902339B0024
:106AE0000B445A603A68BB6A134002339B00164A53
:106AF000134404337B61FB6803F00703D9B27A695E
:106B0000137861F3C50313707B6803F00F03D9B2E8
:106B10007A69138861F389131380BB68C3F3150185
:106B20007A69136861F39F2313607A6913780121EE
:106B300061F3010313707A6913786FF382031370A2
:106B400000BF2037BD4680BDC825002080B400AFFF
:106B500000BFBD465DF8047B7047000080B58CB077
:106B600000AFF860B9601346FB71FB680233BB628B
:106B7000012387F827300023FB7607F11B03184613
:106B800001F0CCF8384B5A68BB681A60374B1A686A
:106B9000354B9968344B5B68CB1A13440133FB6265
:106BA00014E00121324801F099FAFFF7EDFEF86197
:106BB000F9692F4801F092FA2C4B1A682A4B996810
:106BC000294B5B68CB1A13440133FB62BA6AFB6A38
:106BD0009A42E6D897F82730002B3BD000237B6100
:106BE000FB79002B11D03B7D012262F301033B7541
:106BF0003B7D43F004033B75FB6803F00F03DAB2FF
:106C0000BB8A62F38913BB8210E03B7D022262F3F0
:106C100001033B753B7D43F004033B75FB68C3F305
:106C200009039AB2FB8A62F38F13FB820E4B5A68F8
:106C30000E4B1B68134002339B000B4A1344043372
:106C40003B627A693B6A1A60074B5A68BB6A134415
:106C5000054A5360FB7E184601F06BF897F8273021
:106C600018463037BD4680BDC82500200C230020C3
:106C7000E429002080B58AB002AFF860B9607A607C
:106C80003B60214B1B687B6107F110030122194611
:106C90003868FFF763FF0346002B24D03B690233BB
:106CA000FB610023BB6111E0BB699B007A681A4459
:106CB000FB69591CF96179690B4012681349023369
:106CC0009B000B445A60BB690133BB61BA693B68E6
:106CD0009A42E9D33A697B69009313463A68B968E6
:106CE000F868FFF7E5FE094B1B78002B05D000BFC5
:106CF00000F058F80346002BFAD1FFF727FF00BF3A
:106D00002037BD4680BD00BF0C230020C8250020D1
:106D100080B582B000AF7860396000230022396806
:106D20007868FFF7A7FF00BF0837BD4680BD80B574
:106D300086B000AFF860B9607A607B687B6107F16C
:106D400014020123B968F868FFF794FF00BF1837F1
:106D5000BD4680BD80B586B000AFF860B9607A608E
:106D60003B607B683B613B687B6107F1100202235B
:106D7000B968F868FFF77EFF00BF1837BD4680BDD1
:106D800080B400AF064B9A68054B5B689A420CBF13
:106D900001230023DBB21846BD465DF8047B704733
:106DA000C825002080B598B000AFFFF7E9FF034683
:106DB000002B01D00023ABE1924B0022C3F8182432
:106DC000BFF34F8F00BF8F4B9B683B618E4B1B689F
:106DD0003B643A693B6C134002339B00894A13447D
:106DE00004337B640023FB650023BB650023FB6346
:106DF00007F110031946786CFFF78CFD0346002B52
:106E000019D0804BD3F81834002B14D17D4B5A681D
:106E10003B699A4205D87B4B5B687A4A93600023B2
:106E200076E13A693B6C134002339B00754A134488
:106E300004337B64DCE700237B6511E03B695A1C6B
:106E40003A613A6C13407A6D9200391D0A446D49DB
:106E500002339B000B445B6813607B6D01337B65E1
:106E60007B6D012BEAD93B7903F00303DBB2022BE4
:106E700040F09280FB88C3F389139BB27B63FB884D
:106E8000C3F389139BB2502B28BF50239BB23B63A3
:106E90003B6BC3F309039AB2FB8862F38F13FB8049
:106EA0003B6B0833FB623B79C3F3C203DBB2FB638A
:106EB000F96A564801F090FDF865FB6D002B00F073
:106EC000C680F86D01F016FE391DBB6D0822F86D05
:106ED00001F0BEFEBB6D0833BB653B69DA433B6C1A
:106EE000134001339B00BB623A6BBB6A9A423DD9A7
:106EF000BB6A002B08D03A693B6C134002339B00FD
:106F0000404A1344043300E0414B3B62BB6A002B10
:106F100002D0BB6ADBB201E03B6BDBB2FB77BB6A42
:106F2000002B01D03A4B00E00023BB61BB6A002B71
:106F300006D03B6BDAB2BB6ADBB2D31ADBB200E03D
:106F40000023FB75FA7FBB6D396AF86D01F080FE96
:106F5000FB7FBA6D1344BB65BB69002B15D0FA7D6E
:106F6000BB6DB969F86D01F073FE0EE03A693B6CD8
:106F7000134002339B00234A134404337B62BB6DEE
:106F80003A6B796AF86D01F063FE7B6B03339A0804
:106F90003B6913443B615AE03B7903F00303DBB2E6
:106FA000012B54D1BB88C3F38313DBB2062B28BF5C
:106FB0000623DAB2BB8862F38913BB80BB88C3F3B4
:106FC0008313DBB20233BB633B79C3F3C203DBB28F
:106FD000FB63BB6B9B0019460C4801F0FDFCF86598
:106FE000FB6D002B33D0F86D01F084FD391DBB6DB6
:106FF0000822F86D01F02CFEBB6D0833BB65002341
:107000007B651CE0C82500200C23002068340300A9
:10701000D42500203B695A1C3A613A6C1340023374
:107020009B003D4A1344191DBB6D0422F86D01F00D
:107030000FFEBB6D0433BB657B6D01337B65BB8885
:10704000C3F38313DBB21A467B6D9342E2D3FB6D2D
:10705000002B3DD0304BD3F810343B652E4BD3F88A
:107060001834002B1BD0F86D01F054FD4AE00023CA
:1070700087F84F30386DFFF785FB0346002B02D0B1
:10708000012387F84F3097F84F30002B03D0F96D6C
:10709000386DFFF723FB3B6DDB681B683B653B6D81
:1070A000002BE4D1F86D01F035FD0023FB70FB1CD3
:1070B000184600F033FE184BD3F81834002B02D1D9
:1070C0003B69154A9360FB78184600F032FE19E0E0
:1070D000114BD3F81034BB6406E0B86CFFF71AFB11
:1070E000BB6CDB681B68BB64BB6C002BF5D10B4A27
:1070F0000B4BD31ADB081B0443F002030949184663
:10710000FFF706FEFFF73CFE034683F00103DBB208
:1071100018466037BD4680BDC8250020AC3403004A
:107120007C3403007C24030080B584B000AF0023CE
:10713000FB6020E0144BD3F81034BB600123FB71DB
:107140000EE0B868FFF703FB03461A46FB6893425C
:1071500002D10023FB7106E0BB68DB681B68BB60E3
:10716000BB68002BEDD1FB79002B01D0FB6807E059
:10717000FB680133FB60FB68092BDBDD4FF0FF335D
:1071800018461037BD4680BDC825002080B584B0A4
:1071900000AF78600B46FB70FFF7C6FFF860FB6836
:1071A000B3F1FF3F01D1FB6822E0FB68DBB2194677
:1071B0007868FFF7BCFA104BD3F81034002B08D1D5
:1071C0000D4A7B68C2F810347B68DB6800221A60C5
:1071D0000DE0094BD3F81034DA687B68DB6812687D
:1071E0001A60054BD3F81034DB687A681A60FB68C4
:1071F00018461037BD4680BDC825002080B582B036
:1072000000AF0D4BD3F810347B600B4B01221A708A
:1072100009E07868FFF7A8FA7868FFF76EFA7B68EC
:10722000DB681B687B607B68002BF2D100BF00BF6E
:107230000837BD4680BD00BFC825002080B483B09C
:1072400000AF7860396000BF0C37BD465DF8047B45
:107250007047000090B585B002AF786039607B68F8
:10726000DB88002B0AD07B68DB881A461F4B009313
:1072700013461F4A1F49386801F044F87B681B7A9F
:10728000052B2ED07B685B7A002B12D07B689B8805
:107290001A467B681B7A19461046FFF707FB034620
:1072A0001A46154B53F822301A461449386801F033
:1072B00029F87B681B6819463868FFF7BFFF7B68B1
:1072C0001B7A1A460E4B53F822407B689B8800219C
:1072D0001846FFF7CDFA034622460A49386801F0FE
:1072E00011F800BF0C37BD4690BD00BFB0240300AD
:1072F000C0240300F82403002423002010250300E9
:10730000102300201425030080B584B000AFF8607E
:10731000B9601346FB71FB681B7A052B0FD0FB6825
:107320005B7A002B06D00D4B1B681A460C49B868D7
:1073300000F0E8FF0B49B86800F0E4FF06E0FB79D5
:10734000002B03D00749B86800F0DCFFB86800F0F4
:10735000C0FF00BF1037BD4680BD00BF2423002002
:107360001025030020250300B0B58AB004AFF860F3
:10737000B9607A603B60BB6A1B7BFB75BB6A00220D
:107380001A73B96A3868FFF765FF7B68062B7FD8E8
:1073900001A252F823F000BFB5730200BF730200D0
:1073A000CF730200E373020001740200297402002B
:1073B00059740200F968B86A00F0A4FF69E0BB687C
:1073C0001B681A46F968B86A00F09CFF61E0BB6868
:1073D0001A68BB6804331B68F968B86A00F092FF4A
:1073E00057E0BB681A68BB6804331968BB68083388
:1073F0001B6800930B46F968B86A00F083FF48E009
:10740000BB681968BB6804331868BB6808331B681D
:10741000BA680C3212680192009303460A46F96872
:10742000B86A00F06FFF34E0BB681868BB680433CB
:107430001C68BB6808331B68BA680C321268B968EC
:107440001031096802910192009323460246F968BF
:10745000B86A00F057FF1CE0BB681C68BB680433C7
:107460001D68BB6808331B68BA680C321268B968BB
:1074700010310968B86814300068039002910192D5
:1074800000932B462246F968B86A00F03BFF00E003
:1074900000BF0022B96A3868FFF736FFBB6AFA7D81
:1074A0001A7300BF1837BD46B0BD00BF80B586B0A7
:1074B00000AFF860B9607A603B60BB68082B5CD8AD
:1074C0003B681B7BFB743B6800221A733968786841
:1074D000FFF7C0FE00237B6114E07A69BB689A4223
:1074E00009D2FA687B6913441B781A462549386823
:1074F00000F008FF03E02449386800F003FF7B69CF
:1075000001337B617B69072BE7D92049386800F09C
:10751000F9FE00237B6124E07A69BB689A4219D2A4
:10752000FA687B6913441B78BB74BB7C7E2B0AD83A
:10753000BB7C0133164A13441B7803F09703002BDE
:1075400001D0BB7C00E02E231A461249386800F0B7
:10755000D9FE03E01049386800F0D4FE7B6901339E
:107560007B617B69072BD7D9012239687868FFF7DF
:10757000CBFE3B68FA7C1A7300E000BF1837BD46AB
:1075800080BD00BF242503002C2503003025030007
:107590000C330300342503003825030080B485B084
:1075A00000AF0346FB71FB795B08DBB21A460C4B5C
:1075B0009B5CFB73FB7903F00103002B03D0FB7B87
:1075C0001B09DBB203E0FB7B03F00F03DBB2BB73F1
:1075D000BB7B18461437BD465DF8047B704700BF7F
:1075E000002A002080B485B000AF03460A46FB7134
:1075F0001346BB71FB7903F00103002B01D00F236D
:1076000000E0F023FB73FB7903F00103002B03D0B0
:10761000BB791B01DBB200E0BB79BB73FB795B0874
:10762000DBB21A460F4B9A5CFB795B08DBB219465A
:10763000FB7B1340DAB20B4B5A54FB795B08DBB28D
:107640001A46084B9A5CFB795B08DBB21946BB7B98
:107650001343DAB2034B5A5400BF1437BD465DF8EA
:10766000047B7047002A002080B485B000AF034639
:10767000FB710023FB600FE00E4B1A68FB68DB0018
:107680001344BB60BB681B78FA799A4201D1BB688E
:1076900009E0FB680133FB60074B1B781A46FB6867
:1076A0009342E9DB002318461437BD465DF8047B9E
:1076B000704700BFE8290020EC29002080B584B085
:1076C00000AF03460A46FB711346BB71FB791846AF
:1076D000FFF7CAFFF860FB68002B09D0FB685B6806
:1076E000002B05D0FB685B68B979FA79104698479A
:1076F00000BF1037BD4680BD2DE9F04F89B000AF07
:1077000003460A46FB751346BB75FB7D1846FFF71B
:1077100045FF0346042B00F2B58001A252F823F086
:1077200035770200A5770200BD770200E5770200F9
:10773000F7770200BB7D002B00F0A180FB7D0121CB
:107740001846FFF74FFF0023FB7707F11F0318468A
:1077500000F0E4FAF97D4FF001024FF00003A1F1CF
:107760002004C1F1200003FA01F902FA04F449EA05
:10777000040922FA00F049EA000902FA01F8444B30
:10778000D3E9002348EA0201B96049EA0303FB6038
:107790003F4BD7E90212C3E90012FB7F184600F005
:1077A000C8FA6CE0BB7D002B01D0022200E0002271
:1077B000FB7D11461846FFF715FF63E0BB7D002BEC
:1077C0000AD0FB7D03211846FFF70CFFFB7D01214A
:1077D0001846FFF773FF55E0FB7D01211846FFF7C0
:1077E00001FF4FE0BB7D002B4BD1FB7D04211846F0
:1077F000FFF7F8FE45E0BB7D002B05D0FB7D0321A4
:107800001846FFF7EFFE3DE0FB7D00211846FFF72D
:10781000E9FEFB7D00211846FFF750FF0023BB77F0
:1078200007F11E03184600F079FAF97D4FF00102C6
:107830004FF00003A1F12006C1F1200003FA01F589
:1078400002FA06F6354322FA00F0054302FA01F483
:107850006FEA040A6FEA050B0D4BD3E900230AEA2D
:10786000020139600BEA03037B60094BD7E9001280
:10787000C3E90012BB7F184600F05BFA02E000BFCC
:1078800000E000BF00BF2437BD46BDE8F08F00BF59
:10789000F829002080B582B000AF0648064B1B686F
:1078A0005B080022194609F05EF8786000BF0837CF
:1078B000BD4680BD48230020F029002080B586B059
:1078C00000AF786000237B6124E01B4B1A687B6962
:1078D000DB0013443B613B691B78184603F0D4FA84
:1078E0000346FB733B695B78012B0CBF012300232C
:1078F000DBB21A46FB7B9A420CBF01230023BB7309
:107900003B691B78BA7B11461846FFF7F5FE7B6989
:1079100001337B61094B1B781A467B699342D4DBA8
:10792000074BD3E90023134301D0FFF7B3FF00BF98
:107930001837BD4680BD00BFE8290020EC29002093
:10794000F829002080B584B000AF78600B46FB704A
:107950007B68DBB21846FFF787FEF860FB681B7890
:10796000184603F091FA0346FB72FB685B78012B23
:107970000CBF01230023DBB21A46FB7A9A420CBFEC
:1079800001230023BB72BB7A002B06D0054BD3E941
:107990000023134301D1FFF77DFF00BF1037BD4621
:1079A00080BD00BFF829002080B58AB000AFF86024
:1079B0000B467A60FB727B68092B01D807235BE0DA
:1079C00003F054F9034683F00103DBB2002B09D026
:1079D00003F0F2F878627B6A3B623B6A002B01D0CD
:1079E0003B6A49E0264AFB681360264AFB7A13701B
:1079F000254A7B6813601022002124480AF088FB86
:107A000023494FF000024FF00003C1E9002328E0B2
:107A1000FB7ADB00FA681344FB6103233B75002308
:107A20007B75BB7D6FF30003BB75BB7D6FF34103BB
:107A3000BB75BB7D6FF38203BB75FB699B787B7560
:107A4000FB691B78184607F11403124A194603F024
:107A50001FF978627B6ABB61BB69002B01D0BB69EF
:107A60000AE0FB7A5A1EFA72002BD1D10A4A002191
:107A70000A4808F04FFF034618462837BD4680BD28
:107A8000E8290020EC290020F0290020002A00200D
:107A9000F829002045790200BD780200482503003E
:107AA00080B582B000AF00237B600CE00B4B1A68FE
:107AB0007B68DB0013441B780121184603F058F95A
:107AC0007B6801337B60064B1B781A467B689342C8
:107AD000ECD3002318460837BD4680BDE8290020B6
:107AE000EC29002080B582B000AF00237B600BE062
:107AF000154B1A687B68DB0013441B78184603F0AB
:107B00009AF97B6801337B60104B1B781A467B68BF
:107B10009342EDD30023FB70FB1C184600F0FEF8E7
:107B20000B494FF000024FF00003C1E90023FB783E
:107B3000184600F0FEF8074B184608F061FF0346B0
:107B400018460837BD4680BDE8290020EC290020F2
:107B5000F82900204823002080B586B000AF786067
:107B60000023FB6000233B617B687B6107F10C0312
:107B70001A46002144F2010000F01AF800BF18373D
:107B8000BD4680BD80B400AFBFF34F8F00BF064B32
:107B9000DB6803F4E0620449044B1343CB60BFF39A
:107BA0004F8F00BF00BFFDE700ED00E00400FA05C5
:107BB00080B584B000AFF860B9607A6072B600BF7B
:107BC000FFF71CFB00BFFFF7EDF80346002BFAD1CF
:107BD0000F4A104BD31ADB081B0443F001030E4974
:107BE0001846FFF795F80D4B1B6803F00103002BB7
:107BF00000D000BE064A074BD31ADB081B0443F033
:107C0000020307491846FFF783F8FFF7BBFF00BFE1
:107C1000AC3403007C3403004C250300F0ED00E09D
:107C20005825030080B483B000AFEFF310833B60AE
:107C30003B687B6072B600BF7B6818460C37BD4658
:107C40005DF8047B704780B400AF62B600BF00BF30
:107C5000BD465DF8047B704780B584B000AF7860A6
:107C6000FFF7E0FFF860164B9B68002B1BD1144B0D
:107C700001229A60134BD3F88020134B1340104A13
:107C80001360104B104AC3F880200E4BD3F8843099
:107C90000B4A53600B4B4FF0FF32C3F884207B68D4
:107CA00000221A7002E07B6801221A70FB68002B28
:107CB00001D1FFF7C8FF002318461037BD4680BD2D
:107CC000102A002000E100E0FC06FFBD80B584B072
:107CD00000AF0346FB710F4B9B68002B15D0FB795F
:107CE000002B12D1FFF79EFFF8600B4A094B1B686F
:107CF0001360094A074B5B685360064B00229A6089
:107D0000FB68002B01D1FFF79EFF002318461037B8
:107D1000BD4680BD102A002000E100E080B582B0A1
:107D200000AF78607868FFF797FF00BF0837BD465F
:107D300080BD80B582B000AF0346FB71FB79184669
:107D4000FFF7C4FF00BF0837BD4680BD80B487B0D1
:107D500000AF786039607B6853E8011F8AB2D88928
:107D600002449889824228BF121A1889824202BFAF
:107D7000BFF32F8F002307E0C2EA010243E801208E
:107D80000028E9D14FF00103FB737861B9603A61D3
:107D9000BA683B681A60FB7BDBB218461C37BD46ED
:107DA0005DF8047B704780B485B000AF7860796877
:107DB00051E8013FC3EA034341E80132002AF7D109
:107DC000FA60BB6000BF1437BD465DF8047B7047A6
:107DD00080B487B000AF786039607B6853E8021FD9
:107DE0001FFAA1F2D888824202BFBFF32F8F00236F
:107DF0000DE0D88902449889824228BF121AC1EA4C
:107E0000024243E802200028E8D14FF00103FB734F
:107E10007861B9603A61BA683B681A60FB7BDBB293
:107E200018461C37BD465DF8047B704780B485B0AA
:107E300000AF7860796851E8023FC3EA234341E824
:107E40000232002AF7D1FA60BB6000BF1437BD468A
:107E50005DF8047B704780B485B000AFF860B9600E
:107E600011461A460B46FB801346BB80BB68002BAD
:107E700001D10E231BE0FB88BA88B3FBF2F101FBB2
:107E800002F29B1A9BB2002B01D009230FE0FB6882
:107E9000BA681A60FB6800225A60FB6800229A6088
:107EA000FB68FA889A81FB68BA88DA810023184651
:107EB0001437BD465DF8047B704780B584B000AFD1
:107EC000786039603B6819467868FFF73FFF0346E2
:107ED000002B07D07B681B683A6812881344FB604C
:107EE000FB6800E0002318461037BD4680BD80B512
:107EF00082B000AF786039603B681A883B685B8865
:107F00009A4204D17868FFF74EFF012300E0002376
:107F100018460837BD4680BD80B584B000AF786094
:107F200039603B6819467868FFF752FF0346002B1B
:107F300007D07B681B683A6852881344FB60FB6873
:107F400000E0002318461037BD4680BD80B582B0E2
:107F500000AF786039603B681A883B685B889A425A
:107F600004D17868FFF762FF012300E00023184680
:107F70000837BD4680BD80B584B000AF78603960F9
:107F80003B685B099B007A681A443B6803F01F0357
:107F9000012101FA03F31946104600F054F8F86085
:107FA00000BF1037BD4680BD80B584B000AF78609B
:107FB00039603B685B099B007A681A443B6803F0B0
:107FC0001F03012101FA03F3DB431946104600F0B9
:107FD0006CF8F86000BF1037BD4680BD80B483B038
:107FE00000AF786039603B685B099B007A68134496
:107FF0001A683B6803F01F0322FA03F303F001033E
:10800000002B14BF01230023DBB218460C37BD46FA
:108010005DF8047B704790B486B000AF786039603B
:108020007B683A6853E8004F104643E8000191F03E
:10803000000FF7D17C613861F9607B691846183709
:10804000BD4690BC704790B486B000AF7860396090
:108050007B683A6853E8004F44EA020043E80001B5
:1080600091F0000FF6D17C613861F9603B691846E8
:108070001837BD4690BC704790B486B000AF7860AA
:1080800039607B683A6853E8004F04EA020043E82D
:10809000000191F0000FF6D17C613861F9607B69D5
:1080A00018461837BD4690BC704790B486B000AFF4
:1080B000786039607B683A6853E8004F04EA020050
:1080C00043E8000191F0000FF6D17C613861F9605E
:1080D0003B6918461837BD4690BC704790B486B0CF
:1080E00000AF786039607B683A6853E8004F04EB72
:1080F000020043E8000191F0000FF6D17C61386185
:10810000F9603B6918461837BD4690BC704790B47B
:1081100086B000AF786039607B683A6853E8004FFA
:10812000A4EB020043E8000191F0000FF6D17C615E
:108130003861F9603B6918461837BD4690BC7047F6
:1081400080B582B000AF786001217868FFF77BFFCF
:10815000034618460837BD4680BD80B582B000AFE3
:10816000786000217868FFF787FF034618460837D4
:10817000BD4680BD80B483B000AF78600B46FB7015
:108180007B68DA68FB787968098A01FB03F313449A
:1081900018460C37BD465DF8047B704780B483B049
:1081A00000AF786039603B687A68D2689B1A7A6859
:1081B000128AB3FBF2F3DBB218460C37BD465DF80A
:1081C000047B704780B485B000AF78607B68002B7B
:1081D00001D10E231CE07B689A687B685B68D31A28
:1081E000FB737B681B687A6852681A6006E07B68DC
:1081F0001A681368591C1160FA7B1A70FB7B5A1EAF
:10820000FA73002BF3D17B681B6800221A710023DC
:1082100018461437BD465DF8047B704780B584B0BE
:1082200000AF78600023FB600023BB7207F10A03F4
:108230001846FFF773FD7B681B681A687B685B68EC
:108240009A421CD97B681B681A68013A1A601B683D
:108250001B7819467868FFF78DFFF8607B689A688D
:108260007B681B681B68D31AFB727B681B681B79D1
:10827000FA7A9A4203D97B681B68FA7A1A71BB7A38
:108280001846FFF756FDFB6818461037BD4680BDFF
:1082900090B585B000AF786039603B68FB60002323
:1082A000FB7207F10B031846FFF738FD7B681B686C
:1082B0001C68621C1A60F9687868FFF76FFF034654
:1082C0002370FB7A1846FFF734FD00BF1437BD4614
:1082D00090BD80B582B000AF78607B689B68002B52
:1082E0000CD07B685B697A6810697A6811687A6873
:1082F000926898477B6800229A6000E000BF0837C8
:10830000BD4680BD0EB480B585B000AF7860FB6916
:10831000002B0CD00023FB6007F12003FB6007F16A
:108320000C031A46F969786800F0AEF900E000BF66
:108330001437BD46BDE8804003B0704780B582B0B9
:1083400000AF78600B46FB70FB780A2B03D10D2140
:108350007868FFF7F3FF7B681A687B689B68581C96
:10836000796888601344FA781A707B689A687B6829
:108370005B689A4202D37868FFF7ABFF00BF08370B
:10838000BD4680BD80B586B000AFF860B9607A6048
:108390003B6000237B613B6803F00103002B21D08D
:1083A0000AE0BB680133BB607B6901337B61FB7C06
:1083B0001946F868FFF7C2FFBB681B78FB74FB7CAB
:1083C000002BEED106E07B68013B7B602021F86842
:1083D000FFF7B4FF7A687B699A422BD97B68002B40
:1083E000F1D127E0BB68002B0BD0B86809F0E8FE9C
:1083F000786106E07B68013B7B602021F868FFF72D
:108400009DFF7A687B699A420ED97B68002BF1D177
:108410000AE0BB680133BB607B6901337B61FB7C95
:108420001946F868FFF78AFFBB681B78FB74FB7C72
:10843000002BEED100BF1837BD4680BD80B588B097
:1084400000AFF860B9607A603B60BB68FB610123F4
:10845000BB6107E0FA697B68B2FBF3F3FB61BB69C0
:108460000133BB61FA697B689A42F3D23A68BB690F
:108470009A4201D93B68BB61FB6A03F00103002B00
:108480001FD1BB6A002B1CD0FB6A03F00203002B38
:1084900005D03B68002B02D13023FB7501E020237F
:1084A000FB7507E0BB6A013BBB62FB7D1946F868C0
:1084B000FFF744FFBB6A002B03D0BA69BB6A9A423C
:1084C000F0D30123FB613B68012B03D93B68013BDF
:1084D0003B6009E0BA68FB69B2FBF3F33B613A69C0
:1084E0007B689A4200D205E0FB697A6802FB03F3DD
:1084F000FB61E8E7BA68FB69B2FBF3F33B613B69F8
:10850000FA6902FB03F3BA68D31ABB60154A3B69E8
:1085100013441B781946F868FFF710FFFA697B6867
:10852000B2FBF3F3FB61FB69002BE3D1FB6A03F0C1
:108530000103002B11D0BB6A002B0ED006E0BB6AF2
:10854000013BBB622021F868FFF7F8FEBB6A002BF5
:1085500003D0BA69BB6A9A42F1D300BF2037BD4647
:1085600080BD00BF6825030080B588B002AFF86009
:10857000B9607A603B60BB68002BB8BF5B423B616F
:1085800001237B6107E07B683A6992FBF3F33B616F
:108590007B6901337B617B683A699A42F3DA3A6816
:1085A0007B699A4201D93B687B613B6A002B0AD008
:1085B000BB68002B04DB7B6A03F00403002B02D0B2
:1085C0003B6A013B3B627B6A03F00203002B02D053
:1085D0003B68002B16D07B6A03F00103002B11D1FE
:1085E0003B6A002B0ED006E03B6A013B3B62202138
:1085F000F868FFF7A3FE3B6A002B03D07A693B6A59
:108600009A42F1D3BB68002B07DABB685B42BB60C0
:108610002D21F868FFF792FE08E07B6A03F004035F
:10862000002B03D02B21F868FFF788FE7B6A03F04C
:108630000203002B19D07B6A03F00103002B14D135
:108640003B68002B11D13B6A002B0ED006E03B6A41
:10865000013B3B623021F868FFF770FE3B6A002B5C
:1086600003D07A693B6A9A42F1D3B9687B6A019375
:108670003B6A00933B687A68F868FFF7DFFE00BF4B
:108680001837BD4680BD000080B58EB002AFF860DF
:10869000B9607A60BB68002B00F08E81BB681B78E4
:1086A00087F82F30BB680133BB6097F82F30002B61
:1086B00000F0798197F82F30252B40F06881002356
:1086C0003B620123BB62BB681B7887F82F3097F8A9
:1086D0002F30302B0DD0302B1BDC2B2B11D02D2B22
:1086E00017D13B6A43F001033B62BB680133BB60B7
:1086F00012E03B6A43F002033B62BB680133BB609C
:108700000AE03B6A43F004033B62BB680133BB6091
:1087100002E00023BB6200BFBB6A002BD3D1002361
:10872000FB6197F82F302A2B0CD17B681B68191D31
:108730007A6811601B68FA691344FB61BB680133F6
:10874000BB601AE0BB681B7887F82F3097F82F3092
:108750002F2B12D997F82F30392B0ED8BB68013345
:10876000BB60FA6913469B0013445B001A4697F8F6
:108770002F301344303BFB61D3E700237B62BB689F
:108780001B7887F82F3097F82F302E2B1DD1BB6820
:108790000133BB60BB681B7887F82F3097F82F3008
:1087A0002F2B12D997F82F30392B0ED8BB680133F5
:1087B000BB607A6A13469B0013445B001A4697F825
:1087C0002F301344303B7B62E4E7BB681B7887F8AB
:1087D0002F3097F82F306C2B03D097F82F30682B61
:1087E00007D1BB680133BB60BB681B7887F82F30AB
:1087F000EFE797F82F30252B00F0BF80252BC0F234
:10880000C180782B00F3BE80582BC0F2BB80583B50
:10881000202B00F2B78001A252F823F00789020052
:108820008589020085890200858902008589020008
:1088300085890200858902008589020085890200F8
:108840008589020085890200A1880200BF88020094
:1088500085890200858902008589020085890200D8
:10886000BF8802008589020085890200858902008F
:1088700085890200858902008589020047890200F6
:1088800085890200858902002B8902008589020002
:10889000E3880200858902008589020007890200B9
:1088A0007B681B68191D7A6811601B68BB62BB6A14
:1088B000FB75FB7D1946F868FFF740FD63E07B68B8
:1088C0001B68191D7A6811601B68BB623B6A0193C3
:1088D000FB6900937B6A0A22B96AF868FFF744FED5
:1088E00051E07B681B68191D7A6811601B68BB62C8
:1088F000B96A3B6A0193FB6900937B6A0A22F868B4
:10890000FFF79CFD3FE07B681B68191D7A681160CA
:108910001B68BB62B96A3B6A0193FB6900937B6A7F
:108920001022F868FFF78AFD2DE07B681B68191D8F
:108930007A6811601B68BB613B6AFA69B969F868BB
:10894000FFF720FD1FE07B681B68191D7A68116026
:108950001B68BB623021F868FFF7F0FC7821F868EB
:10896000FFF7ECFCB96A0023019308230093082366
:108970001022F868FFF762FD05E02521F868FFF78F
:10898000DDFC00E000BFBB680133BB6005E097F889
:108990002F301946F868FFF7D1FCBB681B78002B15
:1089A0007FF47CAE00E000BFFB681B7B002B04D093
:1089B000F868FFF78EFC00E000BF3037BD4680BD91
:1089C00080B582B000AF78607868FFF7FBFB0346A4
:1089D00018460837BD4680BD80B58AB000AF7860C4
:1089E00039607B681B8A043BFB613A68FB6913446E
:1089F000DA1CFB69B2FBF3F3FB767868FFF70EFC39
:108A000078617B69002B01D1002337E07B6900226C
:108A10001A717B6901225A71FB699AB27B69DA800B
:108A20007B697B62FB7E013B3B617B6A7A681A60F3
:108A300000233B621DE07868FFF7F0FBF860FB68FD
:108A4000002B0ED07B695B790133DAB27B695A71F6
:108A50007B6AFA681A60FB687A681A60FB687B6256
:108A600004E0786900F00EF8002307E03B6A013368
:108A70003B623A6A3B699A42DDD37B6918462837E4
:108A8000BD4680BD80B58AB000AF78607B68FB6171
:108A9000FB695B79FB767B683B62FB7E013B7B611C
:108AA00000237B6205E03B6A1B683B627B6A013303
:108AB0007B627A6A7B699A42F5D33B6A1B683B61A9
:108AC0007B683B6200237B620BE03B6A1B68FB60B8
:108AD000396A3869FFF7DCFBFB683B627B6A01336C
:108AE0007B62FB7E7A6A9A42EFD300BF00BF2837D1
:108AF000BD4680BD80B584B000AF78607B68FB6008
:108B0000FB68043301211846FFF7E8FA00BF10376D
:108B1000BD4680BD80B586B000AF78607B687B6164
:108B20007B69043301211846FFF7F1FA0346FB6025
:108B300007F10C033B613B691B78002B02D178687D
:108B4000FFF7A0FF00BF1837BD4680BD80B590B0CD
:108B500000AFF860B9607A603B60FB687B62FB68DD
:108B6000FB637B6ADB881A467B6A5B7902FB03F353
:108B7000043B3B627B6ADB88FB613B681A1DFB6937
:108B8000B2FBF3F3BB633B680433FA69B3FBF2F265
:108B9000F96901FB02F29B1A7B637B681A683B68E8
:108BA00013443A6A9A4203D23A6A3B68D31A01E004
:108BB0007B681B683B637B683A6B1A6005E0FB6B64
:108BC0001B68FB63BB6B013BBB63BB6B002BF6D12C
:108BD0000023FB62FA697B6BD31ABB62BA6A3B6BF8
:108BE000934228BF1346BB622AE0BA68FB6A13446B
:108BF000BB61FA6B7B6B134404337B6197F848309D
:108C0000002B05D0BA6A7969B86909F0E7F904E080
:108C1000BA6AB969786909F0E1F900237B63FB6BF3
:108C20001B68FB633A6BBB6AD31A3B63FA6ABB6A85
:108C30001344FB62FA693B6B934228BF1346BB6245
:108C40003B6B002BD1D100BF00BF4037BD4680BD7C
:108C500080B588B002AFF860B9607A603B607B682D
:108C60007B6107F11402002300933B68B968F86840
:108C7000FFF76CFF00BF1837BD4680BD80B588B0D8
:108C800002AFF860B9607A603B607B687B6107F196
:108C90001402012300933B68B968F868FFF756FF98
:108CA00000BF1837BD4680BD80B483B000AF034617
:108CB000FB7197F90730002B0CDBFB7903F01F02E7
:108CC000074997F907305B09012000FA02F2603387
:108CD00041F8232000BF0C37BD465DF8047B704788
:108CE00000E100E080B483B000AF78607B680022D0
:108CF0001A60BFF35F8F00BF00BF0C37BD465DF841
:108D0000047B704741DF704700BF184680B584B0D0
:108D100000AF0023FB71FB1D1846FEF7FFFFF1EECD
:108D2000103AFB60FB6823F09F03BB60BB68E1EE79
:108D3000103A00BFBFF35F8F00BF2620FFF7B4FFDC
:108D4000FB791846FEF7F5FF00BF1037BD4680BD22
:108D500080B500AF064B00221A700648FFF7C2FF2D
:108D60000549064800F043F80023184680BD00BFBF
:108D7000202A00201C2A002084250300242A002009
:108D800080B582B000AFFFF7C1FF06F0B7FC034625
:108D9000002B03D0FFF7B6FF786002E020BF40BF92
:108DA00020BF00BF0837BD4680BD80B483B000AF90
:108DB00078607B689B6800229A607B689B680022D1
:108DC0001A617B689B6800225A617B689B6800225D
:108DD000DA607B689B6800225A607B689B6800228F
:108DE0001A6000BF0C37BD465DF8047B704780B445
:108DF00083B000AF786039607B683A681A607B683E
:108E00001B681A687B685A607B685A687B681B68B5
:108E10005B689A4202D17B6800225A6000BF0C371F
:108E2000BD465DF8047B704780B483B000AF7860C6
:108E30007B685B68002B14D07B685B681A467B6894
:108E40001B689B6813441A467B685A607B685A68A3
:108E50007B681B685B689A4204D17B6800225A6079
:108E600000E000BF0C37BD465DF8047B704780B55D
:108E700084B000AF786039607B685B68FB600FE0AE
:108E80007B689B68FA681268396810469847034601
:108E900083F00103DBB2002B07D1FB681B68FB608A
:108EA000FB681B68002BEBD100E000BFFB681A6871
:108EB0003B681A60FB683A681A6000BF1037BD460D
:108EC00080BD80B485B000AF78607B685B681B684C
:108ED000FB607B685B681B68002B06D07B685B6867
:108EE0001A687B685B6812681A60FB68184614375A
:108EF000BD465DF8047B704780B483B000AF7860F6
:108F00007B685B681B6818460C37BD465DF8047BC0
:108F1000704780B485B000AF786039600023FB7281
:108F20007B685B68FB600EE0FB681B683A689A42EE
:108F300006D13B681A68FB681A600123FB7206E0E1
:108F4000FB681B68FB60FB681B68002BECD1FB7A9D
:108F500018461437BD465DF8047B704780B584B071
:108F600000AF7860786800F00DF8F860FB68002BBF
:108F700001D0FB6800E0024B18461037BD4680BDAB
:108F80009C25030080B487B000AF7860174B7B61ED
:108F9000174B3B611FE03A697B69D31ADB10DA0F8C
:108FA00013445B10DB007A691344FB60FB681B68A9
:108FB000BB60BA687B689A4202D9FB683B610AE0F1
:108FC000BA687B689A4203D2FB6808337B6102E08F
:108FD000FB685B6804E07A693B699A42DBD3002353
:108FE00018461C37BD465DF8047B70479C2903007A
:108FF000C42A030080B400AFBFF34F8F00BF064BFD
:10900000DB6803F4E0620449044B1343CB60BFF315
:109010004F8F00BF00BFFDE700ED00E00400FA0540
:1090200080B483B000AF1F4B1B68B3F1FF3F0AD180
:109030001D4B1B68DBB27B601C4B1B681B0903F0DC
:109040000F033B6005E0174B1B687B60184B1B68E8
:109050003B607B68062B1DD13B68033B042B17D874
:1090600001A252F823F000BF7D900200819002001F
:1090700085900200899002008D90020001230AE091
:10908000012308E0012306E0012304E0012302E0BC
:10909000012300E0002318460C37BD465DF8047B31
:1090A000704700BF30010010E00F00F0E80F00F043
:1090B0003401001080B483B000AF194B1B68DBB2E1
:1090C0007B60184B1B681B0903F00F033B607B6838
:1090D000062B1DD13B68033B042B17D801A252F885
:1090E00023F000BFF9900200FD9002000191020000
:1090F000059102000991020001230AE0002308E023
:10910000002306E0002304E0002302E0002300E047
:10911000002318460C37BD465DF8047B704700BF3E
:10912000E00F00F0E80F00F080B483B000AF1F4BF9
:109130001B68B3F1FF3F0AD11D4B1B68DBB27B609C
:109140001C4B1B681B0903F00F033B6005E0174B2A
:109150001B687B60184B1B683B607B68062B1DD12E
:109160003B68033B042B17D801A252F823F000BF41
:1091700085910200899102008D9102009191020077
:109180009591020001230AE0012308E0012306E093
:10919000012304E0012302E0012300E0002318463C
:1091A0000C37BD465DF8047B704700BF30010010EE
:1091B000E00F00F0E80F00F03401001080B483B03D
:1091C00000AF194B1B68DBB27B60184B1B681B0997
:1091D00003F00F033B607B68062B1DD13B68033B0C
:1091E000042B17D801A252F823F000BF019202000D
:1091F00005920200099202000D92020011920200F3
:1092000001230AE0002308E0002306E0002304E035
:10921000002302E0002300E0002318460C37BD467F
:109220005DF8047B704700BFE00F00F0E80F00F02E
:1092300080B483B000AF1F4B1B68B3F1FF3F0AD16E
:109240001D4B1B68DBB27B601C4B1B681B0903F0CA
:109250000F033B6005E0174B1B687B60184B1B68D6
:109260003B607B68062B1DD13B68033B042B17D862
:1092700001A252F823F000BF8D92020091920200E9
:1092800095920200999202009D92020001230AE049
:10929000012308E0012306E0012304E0012302E0AA
:1092A000012300E0002318460C37BD465DF8047B1F
:1092B000704700BF30010010E00F00F0E80F00F031
:1092C0003401001080B483B000AF194B1B68DBB2CF
:1092D0007B60184B1B681B0903F00F033B607B6826
:1092E000062B1DD13B68033B042B17D801A252F873
:1092F00023F000BF099302000D93020011930200B6
:10930000159302001993020001230AE0002308E0EC
:10931000002306E0002304E0002302E0002300E035
:10932000002318460C37BD465DF8047B704700BF2C
:10933000E00F00F0E80F00F080B483B000AF194BED
:109340001B68DBB27B60184B1B681B0903F00F0323
:109350003B607B68062B1DD13B68033B042B17D871
:1093600001A252F823F000BF7D9302008193020016
:1093700085930200899302008D93020001230AE085
:10938000002308E0002306E0002304E0002302E0BD
:10939000002300E0002318460C37BD465DF8047B2F
:1093A000704700BFE00F00F0E80F00F080B483B01A
:1093B00000AF1F4B1B68B3F1FF3F0AD11D4B1B6869
:1093C000DBB27B601C4B1B681B0903F00F033B6087
:1093D00005E0174B1B687B60184B1B683B607B6884
:1093E000062B1DD13B68033B042B17D801A252F872
:1093F00023F000BF099402000D94020011940200B2
:10940000159402001994020000230AE0002308E0EA
:10941000012306E0012304E0012302E0012300E030
:10942000002318460C37BD465DF8047B704700BF2B
:1094300030010010E00F00F0E80F00F034010010E0
:1094400080B483B000AF1F4B1B68B3F1FF3F0AD15C
:109450001D4B1B68DBB27B601C4B1B681B0903F0B8
:109460000F033B6005E0174B1B687B60184B1B68C4
:109470003B607B68062B1DD13B68033B042B17D850
:1094800001A252F823F000BF9D940200A1940200B3
:10949000A5940200A9940200AD94020001230AE001
:1094A000012308E0012306E0012304E0012302E098
:1094B000012300E0002318460C37BD465DF8047B0D
:1094C000704700BF30010010E00F00F0E80F00F01F
:1094D0003401001080B483B000AF1F4B1B68B3F1A0
:1094E000FF3F0AD11D4B1B68DBB27B601C4B1B6826
:1094F0001B0903F00F033B6005E0174B1B687B6003
:10950000184B1B683B607B68062B1DD13B68033BF7
:10951000042B17D801A252F823F000BF31950200A6
:1095200035950200399502003D95020041950200F3
:1095300001230AE0012308E0012306E0012304E0FF
:10954000012302E0012300E0002318460C37BD464A
:109550005DF8047B704700BF30010010E00F00F0A1
:10956000E80F00F03401001080B483B000AF174B57
:109570001B687B60164B1B683B607B68062B1DD10C
:109580003B68033B042B17D801A252F823F000BF1D
:10959000A5950200A9950200AD950200B1950200C3
:1095A000B595020000230AE0002308E0002306E04E
:1095B000012304E0012302E0012300E00023184618
:1095C0000C37BD465DF8047B704700BF30010010CA
:1095D0003401001080B483B000AF174B1B687B6070
:1095E000164B1B683B607B68062B1DD13B68033B19
:1095F000042B17D801A252F823F000BF11960200E5
:1096000015960200199602001D960200219602008E
:1096100000230AE0002308E0002306E0002304E022
:10962000012302E0012300E0002318460C37BD4669
:109630005DF8047B704700BF30010010340100105A
:1096400080B500AFFFF7C6FF0346002B07D04FF0F1
:1096500010234FF08042D3F80832C2F8583500BFCB
:1096600080BD000080B400AF00BF054BD3F80034CC
:10967000002BFAD000BF00BFBD465DF8047B7047E9
:1096800000E0014080B582B000AF7860044A7B689A
:10969000C2F80435FFF7E6FF00BF0837BD4680BDBE
:1096A00000E0014080B400AF034B044A1A6000BFE1
:1096B000BD465DF8047B7047682300200090D0030E
:1096C00080B500AFFFF7ACFC0346002B06D0974BEC
:1096D0001B681B0A964A03F01F031360FFF7EAFC9E
:1096E0000346002B02D0934B934A1A60FFF71CFDF0
:1096F0000346002B06D0914B1B685B0B904A03F08E
:1097000007031360FFF75AFD0346002B05D08D4B6E
:10971000DB688C4A23F08073D360FFF789FD034632
:10972000002B0ED04FF080430022C3F80C214FF0E5
:1097300080430022C3F810214FF080430022C3F879
:109740003825FFF7BFFD0346002B02D07E4B0322D6
:109750001A60FFF7F1FD0346002B0BD07B4B05226F
:109760001A607B4B01221A607A4B00221A607A4BF6
:109770003F221A60FFF71AFE0346002B76D04FF007
:109780008053764AD3F80434C2F820354FF0805322
:10979000724AD3F80834C2F824354FF080536F4A28
:1097A000D3F80C34C2F828354FF080536B4AD3F805
:1097B0001034C2F82C354FF08053684AD3F8143473
:1097C000C2F830354FF08053644AD3F81834C2F8E9
:1097D00034354FF08053614AD3F81C34C2F8403519
:1097E0004FF080535D4AD3F82034C2F844354FF02F
:1097F00080535A4AD3F82434C2F848354FF0805386
:10980000564AD3F82834C2F84C354FF08053534AA7
:10981000D3F82C34C2F850354FF080534F4AD3F868
:109820003034C2F854354FF080534C4AD3F83434B6
:10983000C2F860354FF08053484AD3F83834C2F844
:1098400064354FF08053454AD3F83C34C2F868354C
:109850004FF08053414AD3F84034C2F86C354FF092
:1098600080533E4AD3F84434C2F87035FFF7E8FD20
:109870000346002B05D03A4B1B683A4A03F04F03CE
:109880001360FFF727FE0346002B0DD04FF08043F7
:10989000D3F8003403F00103002B05D04FF08043D0
:1098A0006FF00102C3F80024FFF75EFE0346002BB1
:1098B00005D02D4B1B682C4A43F4806313602B4B5F
:1098C000D3F88830294A43F47003C2F88830BFF3D4
:1098D0004F8F00BFBFF36F8F00BFFFF7B1FE4FF098
:1098E0001023D3F80032002B05DB4FF01023D3F800
:1098F0000432002B15DA0120FFF7C4FE4FF01023CD
:109900001522C3F80022FFF7ADFE4FF010231522F9
:10991000C3F80422FFF7A6FE0020FFF7B3FEFFF70F
:1099200069FBFFF7BFFE00BF80BD00BF240300102E
:109930004035014074C007400DF0ADBA440200103C
:109940003C050040F0ED00E0A0050040105600404E
:1099500088560040185600401456004000C0004091
:1099600058020010E40E00403C17004000ED00E0FB
:1099700080B483B000AF78604FF0A04318460C3736
:10998000BD465DF8047B704780B584B000AF786059
:10999000084611461A460346FB700B46BB70134639
:1099A0007B703B1D1846FFF7E3FFF860FA78BB7841
:1099B0005B001A437B789B001A433B7E1B0242EA02
:1099C00003013B7F1B047A681943FB6802F5E072D0
:1099D00043F8221000BF1037BD4680BD80B584B06B
:1099E00002AF78600023019300230093002301223B
:1099F00001217868FFF7C8FF00BF0837BD4680BD6A
:109A000080B584B002AF78600B46FB70FB78002213
:109A1000019200220092002200217868FFF7B4FF33
:109A200000BF0837BD4680BD80B584B000AF786008
:109A30003B1D1846FFF79CFFF8607B68012202FA85
:109A400003F31946F86800F02CF800BF1037BD4644
:109A500080BD80B584B000AF78603B1D1846FFF72D
:109A600087FFF8607B68012202FA03F31946F86861
:109A700000F026F800BF1037BD4680BD80B582B02B
:109A800000AF786039603B68002B03D17868FFF73E
:109A9000E0FF02E07868FFF7C7FF00BF0837BD4668
:109AA00080BD80B483B000AF786039607B683A686D
:109AB000C3F8082500BF0C37BD465DF8047B70472E
:109AC00080B483B000AF786039607B683A68C3F8CF
:109AD0000C2500BF0C37BD465DF8047B70470000C5
:109AE00080B582B000AF7860054A7B6813441B786C
:109AF00000211846FFF7C2FF00BF0837BD4680BDF2
:109B0000C42A030080B582B000AF7860054A7B6844
:109B100013441B7801211846FFF7B0FF00BF083738
:109B2000BD4680BDC42A030080B582B000AF0023CB
:109B30007B6005E07868FFF7E5FF7B6801337B60B9
:109B40007B68032BF6D900BF00BF0837BD4680BD38
:109B500080B582B000AF00237B6009E0094A7B68D2
:109B600013441B781846FFF739FF7B6801337B608D
:109B70007B68032BF2D9FFF7D7FF00BF0837BD463C
:109B800080BD00BFC42A030080B582B000AF0023AF
:109B90007B600AE0094A7B6813441B78032118465E
:109BA000FFF72EFF7B6801337B607B68032BF1D9C5
:109BB00000BF00BF0837BD4680BD00BFC82A0300F4
:109BC00080B582B000AF78607B6803F00103002BA2
:109BD00001D0FFF7BDFF7B6803F00203002B01D02B
:109BE000FFF7D2FF00BF0837BD4680BD80B483B009
:109BF00000AF0346FB7197F90730002B12DBFB79AE
:109C000003F01F020A4997F907305B09012000FAA7
:109C100002F2203341F82320BFF34F8F00BFBFF380
:109C20006F8F00BF00BF0C37BD465DF8047B7047E7
:109C300000E100E080B400AF064BD3F80034002B05
:109C400014BF01230023DBB21846BD465DF8047B38
:109C5000704700BF0000014080B500AFFFF7EAFF8A
:109C6000034683F00103DBB2002B04D000F01FFB9E
:109C7000024B00229A7000BF80BD00BF2C2A00203A
:109C800080B582B000AF00237B60184B1B78002B9F
:109C900002D085237B601CE0144B00229A60134B9A
:109CA00000225A60114B00221A61104B0022DA6028
:109CB0000F4800F0D3FA786005F020FD034683F0EA
:109CC0000103DBB2002B01D000F0E8FA074B0122C0
:109CD0001A70FFF7AFFF0346002B02D0034B01229F
:109CE0009A707B6818460837BD4680BD2C2A002034
:109CF000A59D020080B485B000AF78607B681B68CA
:109D0000FB60FB68002B03D0FB681A687B681A6055
:109D1000FB6818461437BD465DF8047B70470000A9
:109D200080B582B000AF0023FB71FB1D1846FDF724
:109D3000F5FF094BDB68013B074AD360064BDB6844
:109D4000002B01D1FFF788FFFB791846FDF7F1FFE3
:109D500000BF0837BD4680BD2C2A002080B584B0E6
:109D600000AF0346FB71FB79002B02D10B4BFB606C
:109D700001E00B4BFB60F868FFF7BCFFB860BB6805
:109D8000002B05D0BB685B68FA7910469847F2E76C
:109D900000BF00BF1037BD4680BD00BF342A002081
:109DA0003C2A002080B582B000AF0346FB71FB79EE
:109DB000002B05D1094B01225A700020FFF7CEFF7E
:109DC000FB79012B05D1054B01229A700120FFF789
:109DD000C5FF00BF0837BD4680BD00BF2C2A00204C
:109DE00080B582B000AF786039607B68002B05D108
:109DF000044B01225A700020FFF7B0FF00BF083764
:109E0000BD4680BD2C2A002080B584B000AF03463B
:109E10003960FB71FB79032B27D0032B2ADC002B45
:109E200002D0012B04D025E00020FFF7DFFE22E066
:109E30000023FB7307F10F031846FDF76FFF104B6C
:109E40001B7883F00103DBB2002B01D0FFF718FF72
:109E50000B4BDB6801330A4AD360094B01229A702D
:109E6000FB7B1846FDF765FF05E000F017FAFFF7EA
:109E700057FF00E000BF00BF1037BD4680BD00BFE8
:109E80002C2A002080B588B000AF786039603B682C
:109E9000FB617B681B783B737B685B683B617B681D
:109EA0009B68DBB23B757B68DB68BB61074AFB697B
:109EB00052F823300649FA6951F8221007F10C02D2
:109EC0001046984700BF2037BD4680BD402A00207D
:109ED000442A002080B588B000AF786039603B68C4
:109EE000FB617B681B783B737B685B683B617B68CD
:109EF0009B68DBB23B757B68DB68BB61074AFB692B
:109F000052F823300649FA6951F8221007F10C0281
:109F10001046984700BF2037BD4680BD402A00202C
:109F2000442A0020B0B58EB000AFF860B9607A6006
:109F3000FB681B783B6329493B6B7A6841F8232017
:109F4000BB681A6926493B6B41F82320BB685B7FDD
:109F50001946244A3B6B13440A461A70BB6807F142
:109F600010041D460FCD0FC495E80F0084E80F00C4
:109F70003B6B3B6200237B63FB681B781A46194BE3
:109F80009B5C002B0ED0FB68181D7B68002B01D05A
:109F9000154A00E0002207F11003194602F004FB05
:109FA000786315E0FB681B781A460E4B9B5C002B10
:109FB0000ED1FB6803F10C007B68002B01D00B4A2B
:109FC00000E0002207F11003194601F06DFC7863F0
:109FD0007B6B18463837BD46B0BD00BF402A002015
:109FE000442A0020482A0020859E0200D59E0200B7
:109FF00080B483B000AF0346FB7197F90730002BA4
:10A000000BDBFB7903F01F02074997F907305B0967
:10A01000012000FA02F241F8232000BF0C37BD46B0
:10A020005DF8047B704700BF00E100E080B483B0BE
:10A0300000AF03463960FB7197F90730002B0ADB4C
:10A040003B68DAB20C4997F907305201D2B20B449F
:10A0500083F800230AE03B68DAB20849FB7903F091
:10A060000F03043B5201D2B20B441A7600BF0C37E7
:10A07000BD465DF8047B704700E100E000ED00E0C4
:10A0800080B483B000AF78607B681B0B5BB218466E
:10A090000C37BD465DF8047B704780B582B000AFD9
:10A0A00003460A46FB711346BB71BA7997F907302C
:10A0B00011461846FFF7BAFF00BF0837BD4680BDFE
:10A0C00080B582B000AF0346FB7197F907301846A0
:10A0D000FFF78EFF00BF0837BD4680BD80B483B058
:10A0E00000AF0346FB71114A97F90730002B00DAE5
:10A0F0001F335B115BB252F8232097F907305942A6
:10A1000003F01F0301F01F0158BF4B425BB222FA5C
:10A1100003F303F00103002B14BF01230023DBB280
:10A1200018460C37BD465DF8047B704700E100E03F
:10A1300080B483B000AF78604FF080427B68C2F893
:10A14000083300BF0C37BD465DF8047B704780B410
:10A1500083B000AF0346FB71FB7903F1804301221A
:10A160001A6000BF0C37BD465DF8047B704780B4B1
:10A1700085B000AF0346FB80FB8803F180430022DB
:10A180001A60FB8803F180431B68FB60FB6800BF1B
:10A190001437BD465DF8047B704780B483B000AFD0
:10A1A0000346FB80FB8803F180431B68002B14BF30
:10A1B00001230023DBB218460C37BD465DF8047B53
:10A1C000704780B483B000AF78604FF080427B6806
:10A1D000C2F8183500BF0C37BD465DF8047B7047E8
:10A1E00080B400AF4FF08043D3F818341B0C03F059
:10A1F0000103002B14BF01230023DBB21846BD4628
:10A200005DF8047B704780B582B000AF0623FB7118
:10A210004FF08040FFF734FF03461846FFF75EFF1C
:10A22000034683F00103DBB2002B12D04FF08040D5
:10A23000FFF726FF03461A46FB7919461046FFF73B
:10A240002CFF4FF08040FFF71BFF03461846FFF737
:10A2500037FF00BF0837BD4680BD000080B485B021
:10A2600000AF78600023FB600B4B1B79002B02D002
:10A270008523FB6008E0084A7B681360064B0122D7
:10A280001A71054B00225A71FB6818461437BD46F7
:10A290005DF8047B704700BF4C2A002080B500AFFA
:10A2A000FFF7B1FF0120FFF78CFF00BF80BD80B535
:10A2B00000AF0220FFF73CFF4FF48270FFF757FF1B
:10A2C0000C20FFF744FF00BFFFF78AFF0346002B77
:10A2D000FAD100BF00BF80BD80B500AF4FF48070E1
:10A2E000FFF75BFF0346002B14D04FF48070FFF79D
:10A2F0003EFF0120FFF71CFF104B5B7983F0010349
:10A30000DBB2002B06D00D4B01225A710B4B1B68A0
:10A31000002098474FF48270FFF73FFF0346002B61
:10A320000AD04FF48270FFF722FF0220FFF700FFF0
:10A33000024B1B680120984700BF80BD4C2A0020BB
:10A3400080B483B000AF0346FB7197F90730002B50
:10A350000BDBFB7903F01F02074997F907305B0914
:10A36000012000FA02F241F8232000BF0C37BD465D
:10A370005DF8047B704700BF00E100E080B483B06B
:10A3800000AF03463960FB7197F90730002B0ADBF9
:10A390003B68DAB20C4997F907305201D2B20B444C
:10A3A00083F800230AE03B68DAB20849FB7903F03E
:10A3B0000F03043B5201D2B20B441A7600BF0C3794
:10A3C000BD465DF8047B704700E100E000ED00E071
:10A3D00080B483B000AF78607B681B0B5BB218461B
:10A3E0000C37BD465DF8047B704780B582B000AF86
:10A3F00003460A46FB711346BB71BA7997F90730D9
:10A4000011461846FFF7BAFF00BF0837BD4680BDAA
:10A4100080B582B000AF0346FB7197F9073018464C
:10A42000FFF78EFF00BF0837BD4680BD80B582B004
:10A4300000AF0346FB80FB88184600F024F8034673
:10A440001B68012B0CBF01230023DBB21846083721
:10A45000BD4680BD80B584B000AF0346FB80FB885D
:10A46000184600F010F803461A4600231360FB88D4
:10A47000184600F008F803461B68FB60FB6800BF45
:10A480001037BD4680BD80B483B000AF0346FB806B
:10A49000FB8803F1804303F5C04318460C37BD46E3
:10A4A0005DF8047B7047000080B483B000AF786033
:10A4B000044A7B68C2F8043300BF0C37BD465DF820
:10A4C000047B70470060004080B483B000AF7860C8
:10A4D000044A7B68C2F8083300BF0C37BD465DF8FC
:10A4E000047B70470060004080B483B000AF7860A8
:10A4F000054BD3F804237B68134018460C37BD4640
:10A500005DF8047B704700BF0060004080B483B0FA
:10A5100000AF7860094A7B6803F5A27352F82330D4
:10A52000064943F001027B6803F5A27341F823203A
:10A5300000BF0C37BD465DF8047B704700600040EB
:10A5400080B483B000AF7860094A7B6803F5A273DA
:10A5500052F82330064923F001027B6803F5A27309
:10A5600041F8232000BF0C37BD465DF8047B7047DF
:10A570000060004080B485B000AFF860B960134659
:10A58000FB71164AFB6803F5A27352F82330134996
:10A5900023F4473323F44073FA6802F5A27241F8BA
:10A5A00022300E4AFB6803F5A27352F82320BB68E1
:10A5B0001B0203F4F851FB791B0403F440330B43F3
:10A5C00006491A43FB6803F5A27341F8232000BF34
:10A5D0001437BD465DF8047B704700BF0060004043
:10A5E00080B483B000AF7860074A7B6803F5A2733C
:10A5F00052F823301B0A03F01F0318460C37BD46E0
:10A600005DF8047B704700BF0060004080B483B0F9
:10A6100000AF7860074A7B6803F5A27352F82330D5
:10A620001B0C03F00303DBB218460C37BD465DF884
:10A63000047B70470060004080B483B000AF786056
:10A640004FF0A04318460C37BD465DF8047B7047B9
:10A6500080B584B000AF7860084611461A460346BC
:10A66000FB700B46BB7013467B703B1D1846FFF713
:10A67000E3FFF860FA78BB785B001A437B789B00B5
:10A680001A433B7E1B0242EA03013B7F1B047A68AC
:10A690001943FB6802F5E07243F8221000BF10373F
:10A6A000BD4680BD80B584B002AF78600B46FB70BC
:10A6B000FB7800220192002200920022002178689B
:10A6C000FFF7C6FF00BF0837BD4680BD80B584B028
:10A6D00000AF78603B1D1846FFF7AEFFF8607A6860
:10A6E000FB6802F5E07253F8223023F00203BB60EE
:10A6F0007A68FB6802F5E072B96843F8221000BF7F
:10A700001037BD4680BD80B584B000AF78600B4681
:10A71000FB703B1D1846FFF78FFFF8607A68FB68F7
:10A7200002F5E07253F822307A6823F44031FB6876
:10A7300002F5E07243F822107A68FB6802F5E072D5
:10A7400053F82230FA78120411467A681943FB68EC
:10A7500002F5E07243F8221000BF1037BD4680BDFD
:10A7600080B584B000AF78603B1D1846FFF764FFEA
:10A77000F860F86800F021F802467B6822FA03F3DB
:10A7800003F0010318461037BD4680BD80B584B084
:10A7900000AF78603B1D1846FFF74EFFF8607A68FF
:10A7A000FB6802F5E07253F822301B0C03F0030340
:10A7B000DBB218461037BD4680BD80B483B000AF11
:10A7C00078607B68D3F8103518460C37BD465DF8C5
:10A7D000047B704780B487B000AFF860B9607A60DE
:10A7E0004FF0A0433B61FB687B6119E07B699B00F4
:10A7F00018333B4453F8083CD3F820257B681A6093
:10A800007B699B0018333B4453F8083C7A68126814
:10A81000C3F820257B6804337B607B6901337B614F
:10A82000FA68BB6813447A699A42DFD300BF00BF5D
:10A830001C37BD465DF8047B704780B584B000AF1F
:10A8400078603B1D1846FFF7F7FEF8607B68012231
:10A8500002FA03F31A46FB68C3F8202500BF10373D
:10A86000BD4680BD80B485B000AF78607B685B0971
:10A87000BB600023FB60BB68002B03D14FF0FF33AC
:10A88000FB6000BF7B6803F01F037B60FA687B6896
:10A8900022FA03F303F00103002B14BF012300236A
:10A8A000DBB218461437BD465DF8047B704780B4B0
:10A8B00085B000AF786039603B68FB607B68DB087F
:10A8C000BB607B6803F007037B6001227B6802FAB0
:10A8D00003F3F968BA680A4412781340184614372B
:10A8E000BD465DF8047B704780B485B000AF7860EA
:10A8F00039603B68FB607B68DB08BB607B6803F00A
:10A9000007037B60FA68BB6813441B785AB20121C5
:10A910007B6801FA03F35BB2134359B2FA68BB6870
:10A920001344CAB21A7000BF1437BD465DF8047BE9
:10A930007047000080B483B000AF78600D4A7B6838
:10A940001344303393F90030002B09DB094A7B684C
:10A950001344303393F90030072B01DC012300E06E
:10A96000002303F00103DBB218460C37BD465DF847
:10A97000047B7047542A002080B483B000AF786015
:10A98000084A7B681344303393F90030072BCCBF5F
:10A9900001230023DBB218460C37BD465DF8047B6B
:10A9A000704700BF542A002080B483B000AF7860A5
:10A9B000074A7B681344303393F90030DB43DBB242
:10A9C000DB09DBB218460C37BD465DF8047B7047E7
:10A9D000542A002080B485B000AFF860B9607A6076
:10A9E000FB70BB6859B2104AFB68134430330A4607
:10A9F0001A700D49BB687A6841F82320FB7883F010
:10AA00000103DBB2002B08D0BB68083BFA6851B2E7
:10AA1000054A13440A4683F8502000BF1437BD4648
:10AA20005DF8047B704700BF542A002080B483B0D7
:10AA300000AF7860054A7B6813443033FF221A70F8
:10AA400000BF0C37BD465DF8047B7047542A0020D8
:10AA500080B582B000AF786003497868FFF744FFA3
:10AA600000BF0837BD4680BDA82A002080B483B04F
:10AA700000AF7860054A7B681344303393F90030A7
:10AA800018460C37BD465DF8047B7047542A0020F9
:10AA900080B483B000AF7860044A7B6852F82330FA
:10AAA00018460C37BD465DF8047B7047542A0020D9
:10AAB00080B485B000AF7860074A7B681344503398
:10AAC00093F90030FB73FB7B23F0C0031846143767
:10AAD000BD465DF8047B7047542A002080B485B0E1
:10AAE00000AF7860074A7B681344503393F9003015
:10AAF000FB73FB7B9B09DBB218461437BD465DF840
:10AB0000047B7047542A002080B588B000AFF860FD
:10AB1000B9601346FB71FF23FB77FB79002B01D053
:10AB2000002300E008237B61FB79002B01D0082380
:10AB300000E00C233B617B69BB6112E00E4ABB69FC
:10AB400052F82330B3F1FF3F08D1FB79BA68B969F5
:10AB5000F868FFF73FFFBB69FB7706E0BB6901338D
:10AB6000BB61BA693B699A42E8D397F91F3018462E
:10AB70002037BD4680BD00BF542A002080B483B07A
:10AB800000AF0346FB71FB790A4A4FF0FF3142F8F0
:10AB90002310FB79072B06D9FB79083B054A1344A0
:10ABA000FF2283F8502000BF0C37BD465DF8047BC0
:10ABB000704700BF542A002080B582B000AF284BF8
:10ABC00093F85830002B03D008233B603B6843E0E8
:10ABD0000023FB710DE0FB791846FFF743FE0346A7
:10ABE000002B03D0FB791846FFF720FFFB790133D8
:10ABF000FB71FB791F2BEED90023FB7106E0FB797B
:10AC00001846FFF7BBFFFB790133FB71FB790B2B78
:10AC1000F5D904220021134807F07AFA1248FFF709
:10AC2000D7FB034606211846FFF7DFFB0E48FFF768
:10AC3000CFFB03461846FFF7EBFB4FF4BE70FFF760
:10AC400009FC4FF00040FFF72FFC054B012283F871
:10AC5000582000233B603B6818460837BD4680BD3E
:10AC6000542A0020A82A00200060004080B400AFD1
:10AC7000064B93F85830002B14BF01230023DBB29E
:10AC80001846BD465DF8047B704700BF542A00207B
:10AC900080B586B000AFF860B9607A6000237B6150
:10ACA000F868FFF781FE0346002B02D008237B6182
:10ACB00056E0BB689B78C3F34003DBB21A46796861
:10ACC000F868FFF721FF0346FB7497F91330B3F1DF
:10ACD000FF3F43D0BB689B78C3F38003DBB283F0B4
:10ACE0000103DBB2002B13D0BB689B7803F0010398
:10ACF000DBB2002B03D0F868FFF7E8FC05E0BB6887
:10AD00005B781946F868FFF7CDFCF868FFF7A0FEFE
:10AD1000BB689B7803F00203DBB2002B08D097F9E5
:10AD20001300BB681B781A46F968FFF723FC17E08D
:10AD300097F91330083B0D4A134493F95010BB6840
:10AD40001B789B015AB297F91330083B0A4351B262
:10AD5000064A13440A4683F8502001E004237B612D
:10AD60007B6918461837BD4680BD00BF542A0020B5
:10AD700080B588B000AF78600B46FB707868FFF74D
:10AD8000FBFD0346002B24D07868FFF76FFE0346D7
:10AD9000083B1846FFF7A2FE0346FB73FB7B032B21
:10ADA0000AD17868FFF7DCFC0346002B01D00323AF
:10ADB00000E00223FB7706E0FB7B012B01D102239D
:10ADC00000E00323FB77FB7F19467868FFF79BFCC5
:10ADD0002DE07868FFF7AEFD0346002B27D078689A
:10ADE000FFF744FE0346BB61BB699BB240339BB295
:10ADF0009B00FB82BB691846FFF788FBFB8A18465D
:10AE0000FFF728FBFB78002B11D07868FFF72EFEA8
:10AE100003461846FFF73CFE38613B69002B06D01D
:10AE20000122BB6902FA03F31846FFF73DFB00BF9E
:10AE30002037BD4680BD80B584B000AF78607868AB
:10AE4000FFF79AFD0346002B04D000217868FFF736
:10AE50005AFC15E07868FFF76DFD0346002B0FD014
:10AE60007868FFF703FE0346FB60FB681846FFF7B0
:10AE700067FB0122FB6802FA03F31846FFF724FB85
:10AE800000BF1037BD4680BD80B582B000AF78608E
:10AE90007868FFF765FC0346002B14BF01230023ED
:10AEA000DBB218460837BD4680BD80B584B000AF20
:10AEB00078607A6801210020FFF78CFC0023FB609A
:10AEC0000BE0FB689B007A6813441B68002B01D0E1
:10AED000012306E0FB680133FB60FB68002BF0D028
:10AEE000002318461037BD4680BD000080B586B0EF
:10AEF00000AF786000237B6150E02F4A7B691344E8
:10AF0000503393F90030B3F1FF3F43D07869FFF736
:10AF1000CFFD386179683869FFF7C9FC0346002B1B
:10AF200039D07869FFF7DAFD0346FB733869FFF71C
:10AF30002DFC0346BB73BB7B022B01D1032300E036
:10AF400002237B737B7B19463869FFF7DCFB38698A
:10AF5000FFF773FC3869FFF789FD03461846FFF7D2
:10AF600097FDB860BB68002B15D0FB7B032B0BD083
:10AF7000BB7B022B02D1FB7B012B05D0BB7B032BC0
:10AF800009D1FB7B022B06D1FA7BBB6811463869DD
:10AF9000984700E000BF7B6901337B617B69032B2D
:10AFA000ABD97868FFF781FF0346002BA2D100BF21
:10AFB00000BF1837BD4680BD542A002080B588B038
:10AFC00000AF0023BB6100233B604FF480737B82A2
:10AFD0000123FB6100237B611DE07B8A1846FFF79C
:10AFE00025FA0346002B0DD0F869FFF77DFA0346DA
:10AFF000002B07D07B8A1846FFF72CFABA69FB6949
:10B000001343BB61FB695B00FB617B8A04337B827A
:10B010007B6901337B617B69072BDED94FF4BE70FE
:10B02000FFF704FA0346002B0DD04FF4BE70FFF774
:10B0300011FABB6943F00043BB613B461A4601214C
:10B040000020FFF7C7FBBB69DBB2002B27D0012331
:10B05000FB6100237B611FE0FA69BB691340002B91
:10B0600014D07869FFF7BCFAF8607869FFF7CEFA78
:10B070000346FB727869FFF70BFD78607B68002B55
:10B0800004D0FA7A7B681146F8689847FB695B0040
:10B09000FB617B6901337B617B69072BDCD9BB6971
:10B0A000002B03DA3B461846FFF720FF00BF20378E
:10B0B000BD4680BD80B500AF024B1B68984700BFFE
:10B0C00080BD00BFB02A002080B483B000AF78609C
:10B0D0007B68064A934201D1054B00E000231846E5
:10B0E0000C37BD465DF8047B704700BF0020004070
:10B0F000B02A002080B586B000AF786039607868EB
:10B10000FFF7E2FF38613B69002B20D00023FB757D
:10B110000023FB7207F10B031846FCF7FFFD3B69A8
:10B120001B79002B02D00123FB7505E03B693A68CF
:10B130001A603B6901221A71FB7A1846FCF7F9FD87
:10B14000FB7D002B03D01123FB60FB6802E0002392
:10B15000FB60FB6818461837BD4680BD80B584B0DB
:10B1600000AF78607868FFF7AFFFF860FB68002BEE
:10B1700005D0FB6800221A60FB6800221A7100BF2C
:10B180001037BD4680BD000080B483B000AF0346D9
:10B19000FB7197F90730002B0BDBFB7903F01F02E3
:10B1A000074997F907305B09012000FA02F241F8DC
:10B1B000232000BF0C37BD465DF8047B704700BFFD
:10B1C00000E100E080B483B000AF0346FB7197F963
:10B1D0000730002B12DBFB7903F01F020A4997F9B5
:10B1E00007305B09012000FA02F2203341F82320E6
:10B1F000BFF34F8F00BFBFF36F8F00BF00BF0C378F
:10B20000BD465DF8047B704700E100E080B483B088
:10B2100000AF03463960FB7197F90730002B0ADB5A
:10B220003B68DAB20C4997F907305201D2B20B44AD
:10B2300083F800230AE03B68DAB20849FB7903F09F
:10B240000F03043B5201D2B20B441A7600BF0C37F5
:10B25000BD465DF8047B704700E100E000ED00E0D2
:10B2600080B483B000AF78607B681B0B5BB218467C
:10B270000C37BD465DF8047B704780B582B000AFE7
:10B2800003460A46FB711346BB71BA7997F907303A
:10B2900011461846FFF7BAFF00BF0837BD4680BD0C
:10B2A00080B582B000AF0346FB7197F907301846AE
:10B2B000FFF76AFF00BF0837BD4680BD80B582B08A
:10B2C00000AF0346FB7197F907301846FFF77AFF86
:10B2D00000BF0837BD4680BD80B485B000AF786040
:10B2E0000B467B807B887A68134400221A607B8837
:10B2F0007A6813441B68FB60FB6800BF1437BD46C7
:10B300005DF8047B704780B483B000AF78600B4673
:10B310007B807B887A6813441B68002B14BF012351
:10B320000023DBB218460C37BD465DF8047B70473E
:10B3300080B483B000AF786039607B683A68C3F846
:10B34000042300BF0C37BD465DF8047B704780B412
:10B3500083B000AF786039607B68D3F804233B6822
:10B360001340002B14BF01230023DBB218460C3717
:10B37000BD465DF8047B704780B483B000AF786051
:10B3800039607B683A68C3F8082300BF0C37BD46B4
:10B390005DF8047B704780B485B000AF78607B684F
:10B3A000D3F88034FB607B68FA68C3F88024FB68BC
:10B3B00018461437BD465DF8047B704780B483B0EF
:10B3C00000AF78607B680422C3F8002500BF0C370B
:10B3D000BD465DF8047B704780B483B000AF7860F1
:10B3E0007B680022C3F8002500BF0C37BD465DF81E
:10B3F000047B704780B485B000AFF860B9607A60B4
:10B40000FB687A68C3F81425FB68BA68C3F80C2592
:10B4100000BF1437BD465DF8047B704780B582B02D
:10B4200000AF78604FF0FF324FF0FF317868FFF7E0
:10B43000E1FF00BF0837BD4680BD80B483B000AFD8
:10B4400078607B68D3F80C3518460C37BD465DF83C
:10B45000047B704780B483B000AF78607B68D3F81A
:10B46000143518460C37BD465DF8047B704780B430
:10B4700083B000AF78607B68D3F8083518460C3786
:10B48000BD465DF8047B704780B483B000AF786040
:10B490007B68D3F8103518460C37BD465DF8047B41
:10B4A000704780B485B000AFF860B9607A60FB681F
:10B4B000BA68C3F80825FB687A68C3F8102500BF8E
:10B4C0001437BD465DF8047B704780B582B000AF8D
:10B4D00078604FF0FF324FF0FF317868FFF7E1FFFF
:10B4E00000BF0837BD4680BD80B483B000AF786030
:10B4F0007B68D3F81835DBB218460C37BD465DF8CB
:10B50000047B704780B483B000AF78600B46FB705B
:10B51000FA787B68C3F81C2500BF0C37BD465DF880
:10B52000047B704780B483B000AF78600B46FB703B
:10B53000FB787A68134401221A6000BF0C37BD46BD
:10B540005DF8047B704780B483B000AF78600B4631
:10B55000FB701346BB70FA78BB781343DBB21A4614
:10B560007B68C3F86C2500BF0C37BD465DF8047BD3
:10B57000704780B483B000AF786039607B683A6808
:10B58000C3F8242500BF0C37BD465DF8047B704727
:10B5900080B483B000AF78604FF0A04318460C37FA
:10B5A000BD465DF8047B704780B584B000AF78601D
:10B5B000084611461A460346FB700B46BB701346FD
:10B5C0007B703B1D1846FFF7E3FFF860FA78BB7805
:10B5D0005B001A437B789B001A433B7E1B0242EAC6
:10B5E00003013B7F1B047A681943FB6802F5E07294
:10B5F00043F8221000BF1037BD4680BD80B584B02F
:10B6000002AF7860002301930023009300230122FE
:10B6100001217868FFF7C8FF00BF0837BD4680BD2D
:10B6200080B584B002AF78600B46FB70FB780022D7
:10B63000019200220092002200217868FFF7B4FFF7
:10B6400000BF0837BD4680BD80B584B002AF7860CA
:10B650000023019300230093002301220021786836
:10B66000FFF7A2FF00BF0837BD4680BD80B584B09C
:10B6700000AF78603B1D1846FFF78AFFF8607B68D3
:10B68000012202FA03F31946F86800F004F800BF3B
:10B690001037BD4680BD80B483B000AF786039609C
:10B6A0007B683A68C3F8082500BF0C37BD465DF8D3
:10B6B000047B704780B582B000AF786039603B682A
:10B6C0001B68B3F1FF3F09D03B681B681846FFF7C2
:10B6D000CDFF3B681B681846FFF790FF3B685B682F
:10B6E000B3F1FF3F05D03B685B6800211846FFF7C8
:10B6F00097FF7B681A683B689B6919461046FFF7FD
:10B7000038FF7B6818683B68597D3B681B7D1A468B
:10B71000FFF719FF7B6818683B6819683B685B682E
:10B720001A46FFF767FE3B681B7D012B22D13B6861
:10B730009B68B3F1FF3F05D03B689B68002118462A
:10B74000FFF76EFF3B68DB68B3F1FF3F09D03B6852
:10B75000DB681846FFF78AFF3B68DB681846FFF78F
:10B760004DFF7B6818683B68D9683B689B681A4640
:10B77000FFF797FE00BF0837BD4680BD80B582B099
:10B7800000AF78600B46FB707B681B684FF48E71CE
:10B790001846FFF7A1FD7B681B684FF4A27118469D
:10B7A000FFF79AFD7B681B680E491846FFF7C0FD3E
:10B7B0007B681B681846FFF753FD03461A46FB7863
:10B7C00019461046FFF759FD7B681B681846FFF7BE
:10B7D00047FD03461846FFF763FD00BF0837BD4627
:10B7E00080BD00BF8000020080B582B000AF7860ED
:10B7F0007B681B6808491846FFF7BEFD7B681B681D
:10B800001846FFF72DFD03461846FFF757FD00BF0A
:10B810000837BD4680BD00BF8402020080B586B0F7
:10B8200000AF78607B681B681846FFF706FE7861FA
:10B830007B681B681846FFF70DFE38617B681B6844
:10B840001846FFF714FEF8607B681B681846FFF780
:10B850001BFEB8607B681B681846FFF7DFFD7B683E
:10B860001B681846FFF731FE7B69B3F1FF3F02D03A
:10B870007869FFF7E9FE3B69B3F1FF3F02D0386911
:10B88000FFF7E2FEBB68B3F1FF3F02D0B868FFF7F5
:10B89000DBFEFB68B3F1FF3F02D0F868FFF7D4FE90
:10B8A00000BF1837BD4680BD80B586B000AFF860D8
:10B8B000B9607A60FB681B791A462C2302FB03F3FC
:10B8C000284A13443B6100237B613B6993F82A308B
:10B8D000002B03D008237B617B693EE0FB681A687C
:10B8E000FB681B791946204B53F821301946104646
:10B8F000FFF700FC0346002B03D011237B617B691B
:10B900002BE0B968F868FFF7D5FE3B697A685A60A2
:10B91000BB681A693B691A603B695B68002B05D0FC
:10B92000BB681B7F1946F868FFF728FFFB681B6898
:10B930001846FFF743FD3B6900229A613B690022EC
:10B94000DA613B69002283F829203B6900225A61B1
:10B950003B69012283F82A207B6918461837BD46C7
:10B9600080BD00BFB82A0020F02A030080B584B053
:10B9700000AF78607B681B791A462C2302FB03F327
:10B98000104A1344FB607B681B681846FFF724FDD0
:10B99000FB685B68002B02D07868FFF725FF7868AA
:10B9A000FFF73CFF7B681B681846FFF7D7FBFB6877
:10B9B000002283F82A20FB6800225A6000BF10375B
:10B9C000BD4680BDB82A002080B584B000AF786045
:10B9D00039604FF48E717868FFF77EFC3B689A6897
:10B9E0003B681B6A13441B78FB733B681B6A5A1C39
:10B9F0003B681A62FB7B19467868FFF783FD00BF3E
:10BA00001037BD4680BD80B584B000AF7860396026
:10BA10003B685B69FB6016E03B6893F82830DBB25B
:10BA2000002B01D0002314E04FF48E717868FFF7EB
:10BA30006AFC034683F00103DBB2002BECD13968CA
:10BA40007868FFF7C1FF3B681B6AFA689A42EBD837
:10BA5000012318461037BD4680BD000080B586B072
:10BA600000AFF860B9607A60FB681B791A462C2336
:10BA700002FB03F32E4A13443B61F86800F05AF8C6
:10BA80000346002B03D011237B617B694CE03B69AB
:10BA90007A685A613B69BA689A603B6900221A6207
:10BAA0003B69002283F8282000237B61FB681B6828
:10BAB0004FF48E711846FFF70FFCFB681B680821D6
:10BAC0001846FFF72FFDFB681B6839691846FFF71A
:10BAD0007BFF3B695B68002B25D1FB681B683969DC
